{
  "contractName": "Tokencreation",
  "abi": [
    {
      "anonymous": false,
      "inputs": [
        {
          "indexed": true,
          "internalType": "address",
          "name": "previousOwner",
          "type": "address"
        },
        {
          "indexed": true,
          "internalType": "address",
          "name": "newOwner",
          "type": "address"
        }
      ],
      "name": "OwnershipTransferred",
      "type": "event"
    },
    {
      "inputs": [],
      "name": "owner",
      "outputs": [
        {
          "internalType": "address",
          "name": "",
          "type": "address"
        }
      ],
      "stateMutability": "view",
      "type": "function"
    },
    {
      "inputs": [],
      "name": "renounceOwnership",
      "outputs": [],
      "stateMutability": "nonpayable",
      "type": "function"
    },
    {
      "inputs": [
        {
          "internalType": "address",
          "name": "newOwner",
          "type": "address"
        }
      ],
      "name": "transferOwnership",
      "outputs": [],
      "stateMutability": "nonpayable",
      "type": "function"
    },
    {
      "inputs": [],
      "name": "EthertoToken",
      "outputs": [],
      "stateMutability": "payable",
      "type": "function"
    },
    {
      "inputs": [],
      "name": "Playertokens",
      "outputs": [
        {
          "internalType": "uint256",
          "name": "",
          "type": "uint256"
        }
      ],
      "stateMutability": "view",
      "type": "function"
    },
    {
      "inputs": [],
      "name": "getBalance",
      "outputs": [
        {
          "internalType": "uint256",
          "name": "",
          "type": "uint256"
        }
      ],
      "stateMutability": "view",
      "type": "function"
    },
    {
      "inputs": [],
      "name": "checklength",
      "outputs": [
        {
          "internalType": "uint256",
          "name": "",
          "type": "uint256"
        }
      ],
      "stateMutability": "view",
      "type": "function"
    }
  ],
  "bytecode": "0x608060405234801561001057600080fd5b5060006100216100c460201b60201c565b9050806000806101000a81548173ffffffffffffffffffffffffffffffffffffffff021916908373ffffffffffffffffffffffffffffffffffffffff1602179055508073ffffffffffffffffffffffffffffffffffffffff16600073ffffffffffffffffffffffffffffffffffffffff167f8be0079c531659141344cd1fd0a4f28419497f9722a3daafe3b4186f6b6457e060405160405180910390a3506100cc565b600033905090565b6108c8806100db6000396000f3fe6080604052600436106100705760003560e01c80637ae659e41161004e5780637ae659e4146100e25780638da5cb5b1461010d5780639d90199e1461014e578063f2fde38b1461015857610070565b80630fd7e8a91461007557806312065fe0146100a0578063715018a6146100cb575b600080fd5b34801561008157600080fd5b5061008a6101a9565b6040518082815260200191505060405180910390f35b3480156100ac57600080fd5b506100b56101b6565b6040518082815260200191505060405180910390f35b3480156100d757600080fd5b506100e06101be565b005b3480156100ee57600080fd5b506100f7610344565b6040518082815260200191505060405180910390f35b34801561011957600080fd5b5061012261038e565b604051808273ffffffffffffffffffffffffffffffffffffffff16815260200191505060405180910390f35b6101566103b7565b005b34801561016457600080fd5b506101a76004803603602081101561017b57600080fd5b81019080803573ffffffffffffffffffffffffffffffffffffffff169060200190929190505050610634565b005b6000600380549050905090565b600047905090565b6101c661083f565b73ffffffffffffffffffffffffffffffffffffffff1660008054906101000a900473ffffffffffffffffffffffffffffffffffffffff1673ffffffffffffffffffffffffffffffffffffffff1614610286576040517f08c379a00000000000000000000000000000000000000000000000000000000081526004018080602001828103825260208152602001807f4f776e61626c653a2063616c6c6572206973206e6f7420746865206f776e657281525060200191505060405180910390fd5b600073ffffffffffffffffffffffffffffffffffffffff1660008054906101000a900473ffffffffffffffffffffffffffffffffffffffff1673ffffffffffffffffffffffffffffffffffffffff167f8be0079c531659141344cd1fd0a4f28419497f9722a3daafe3b4186f6b6457e060405160405180910390a360008060006101000a81548173ffffffffffffffffffffffffffffffffffffffff021916908373ffffffffffffffffffffffffffffffffffffffff160217905550565b6000600160003373ffffffffffffffffffffffffffffffffffffffff1673ffffffffffffffffffffffffffffffffffffffff16815260200190815260200160002060000154905090565b60008060009054906101000a900473ffffffffffffffffffffffffffffffffffffffff16905090565b670de0b6b3a7640000341015610435576040517f08c379a00000000000000000000000000000000000000000000000000000000081526004018080602001828103825260208152602001807f4e65656420746f206368616e6765206d6f7265207468616e203120457468657281525060200191505060405180910390fd5b670de0b6b3a7640000348161044657fe5b043373ffffffffffffffffffffffffffffffffffffffff163110156104b6576040517f08c379a00000000000000000000000000000000000000000000000000000000081526004018080602001828103825260258152602001806108486025913960400191505060405180910390fd5b670de0b6b3a764000034816104c757fe5b04600160003373ffffffffffffffffffffffffffffffffffffffff1673ffffffffffffffffffffffffffffffffffffffff1681526020019081526020016000206000016000828254019250508190555060001515600260003373ffffffffffffffffffffffffffffffffffffffff1673ffffffffffffffffffffffffffffffffffffffff16815260200190815260200160002060000160009054906101000a900460ff1615151415610632576003339080600181540180825580915050600190039060005260206000200160009091909190916101000a81548173ffffffffffffffffffffffffffffffffffffffff021916908373ffffffffffffffffffffffffffffffffffffffff1602179055506001600260003373ffffffffffffffffffffffffffffffffffffffff1673ffffffffffffffffffffffffffffffffffffffff16815260200190815260200160002060000160006101000a81548160ff0219169083151502179055505b565b61063c61083f565b73ffffffffffffffffffffffffffffffffffffffff1660008054906101000a900473ffffffffffffffffffffffffffffffffffffffff1673ffffffffffffffffffffffffffffffffffffffff16146106fc576040517f08c379a00000000000000000000000000000000000000000000000000000000081526004018080602001828103825260208152602001807f4f776e61626c653a2063616c6c6572206973206e6f7420746865206f776e657281525060200191505060405180910390fd5b600073ffffffffffffffffffffffffffffffffffffffff168173ffffffffffffffffffffffffffffffffffffffff161415610782576040517f08c379a000000000000000000000000000000000000000000000000000000000815260040180806020018281038252602681526020018061086d6026913960400191505060405180910390fd5b8073ffffffffffffffffffffffffffffffffffffffff1660008054906101000a900473ffffffffffffffffffffffffffffffffffffffff1673ffffffffffffffffffffffffffffffffffffffff167f8be0079c531659141344cd1fd0a4f28419497f9722a3daafe3b4186f6b6457e060405160405180910390a3806000806101000a81548173ffffffffffffffffffffffffffffffffffffffff021916908373ffffffffffffffffffffffffffffffffffffffff16021790555050565b60003390509056fe4e6f7420656e6f7567682066756e647320746f20636f6e7665727420746f20546f6b656e734f776e61626c653a206e6577206f776e657220697320746865207a65726f2061646472657373a2646970667358221220090a21b5a6adfd2e1c2f735cae78196a3f5e65c08bc74aa40cc4d48b827ff81a64736f6c63430007000033",
  "immutableReferences": {},
  "source": "pragma solidity ^0.7.0;\r\n\r\nimport \"@openzeppelin/contracts/math/SafeMath.sol\";\r\nimport \"@openzeppelin/contracts/access/Ownable.sol\";\r\n\r\ncontract Tokencreation is Ownable {\r\n    struct Player {\r\n        uint256 totaltokens;\r\n        uint256 bettokens;\r\n        uint256 selectednr;\r\n        bool userexists;\r\n    }\r\n\r\n    struct Change {\r\n        bool isChanged;\r\n    }\r\n    mapping(address => Player) playerinfo;\r\n    mapping(address => Change) changes;\r\n\r\n    address payable[] globallist;\r\n\r\n    function EthertoToken() public payable {\r\n        require(msg.value >= 1 ether, \"Need to change more than 1 Ether\");\r\n        require(\r\n            msg.sender.balance >= msg.value / 1 ether,\r\n            \"Not enough funds to convert to Tokens\"\r\n        );\r\n        playerinfo[msg.sender].totaltokens += msg.value / 1 ether;\r\n        if (changes[msg.sender].isChanged == false) {\r\n            globallist.push(msg.sender);\r\n            changes[msg.sender].isChanged = true;\r\n        }\r\n    }\r\n\r\n    function Playertokens() public view returns (uint256) {\r\n        return playerinfo[msg.sender].totaltokens;\r\n    }\r\n\r\n    function getBalance() public view returns (uint256) {\r\n        return address(this).balance;\r\n    }\r\n\r\n    function checklength() public view returns (uint256) {\r\n        return globallist.length;\r\n    }\r\n}\r\n\r\n//Each contract will represent a gameplay instance.\r\ncontract HollyRollyPolly is Tokencreation {\r\n    using SafeMath for uint256;\r\n\r\n    enum GameState {NOTSTARTED, INPROGRESS, ENDED}\r\n    //address payable owner;\r\n    address payable[] playerlist;\r\n    address payable[] winnerlist;\r\n    uint256 tokenpot;\r\n    uint256 counter = 1;\r\n    uint256 betFixed = 0;\r\n    GameState state = GameState.NOTSTARTED;\r\n\r\n    // constructor() public{\r\n    //     owner=msg.sender;\r\n    // }\r\n\r\n    function rndGenerate(uint256 mod) internal returns (uint256) {\r\n        counter++; //Cannot be view since we are modifying sth in the function.\r\n        return\r\n            uint256(\r\n                keccak256(\r\n                    abi.encodePacked(\r\n                        counter,\r\n                        block.timestamp,\r\n                        block.difficulty,\r\n                        msg.sender\r\n                    )\r\n                )\r\n            ) % mod;\r\n    }\r\n\r\n    function participate(uint256 _nroftokens, uint256 _numselected)\r\n        public\r\n        payable\r\n    {\r\n        require(\r\n            betFixed == 0 || _nroftokens == betFixed,\r\n            \"Please bet tokens according to the bet allocated to room.\"\r\n        );\r\n        require(_nroftokens > 0, \"Need to bet more than 0\");\r\n        require(\r\n            !playerinfo[msg.sender].userexists,\r\n            \"Player is already inside the game\"\r\n        );\r\n        require(\r\n            playerinfo[msg.sender].totaltokens >= _nroftokens,\r\n            \"You have bet more tokens than you have in your account\"\r\n        );\r\n        require(\r\n            _numselected >= 1 && _numselected <= 6,\r\n            \"Choose a number from 1 to 6\"\r\n        );\r\n        if (betFixed == 0) {\r\n            //Set the base template bet of the room.\r\n            betFixed = _nroftokens;\r\n        }\r\n        playerlist.push(msg.sender);\r\n        playerinfo[msg.sender].bettokens = _nroftokens;\r\n        playerinfo[msg.sender].selectednr = _numselected;\r\n        tokenpot = tokenpot.add(_nroftokens);\r\n        playerinfo[msg.sender].totaltokens = playerinfo[msg.sender]\r\n            .totaltokens\r\n            .sub(_nroftokens);\r\n        playerinfo[msg.sender].userexists = true;\r\n    }\r\n\r\n    function numberofplayers() public view returns (uint256) {\r\n        return playerlist.length;\r\n    }\r\n\r\n    function potsize() public view returns (uint256) {\r\n        return tokenpot;\r\n    }\r\n\r\n    //Only owner can start the game...\r\n    function gameplay() public payable onlyOwner {\r\n        require(playerlist.length >= 1, \"Not enough players\");\r\n        require(\r\n            state == GameState.NOTSTARTED,\r\n            \"Game is either in progress or has ended. Please start a new game.\"\r\n        );\r\n        state = GameState.INPROGRESS;\r\n        //uint answer = rndGenerate(6) + 1;\r\n        uint256 answer = 2;\r\n\r\n        uint256 winnertottokens;\r\n        for (uint256 i = 0; i < playerlist.length; i++) {\r\n            address payable playerAddress = playerlist[i];\r\n            if (playerinfo[playerAddress].selectednr == answer) {\r\n                winnerlist.push(playerAddress);\r\n                winnertottokens += playerinfo[playerAddress].bettokens;\r\n            }\r\n        }\r\n        if (winnerlist.length == 0) {\r\n            for (uint256 i = 0; i < globallist.length; i++) {\r\n                address payable playerAddress = globallist[i];\r\n                if (playerinfo[playerAddress].totaltokens > 0) {\r\n                    playerAddress.transfer(\r\n                        playerinfo[playerAddress].totaltokens * 1 ether\r\n                    );\r\n                }\r\n            }\r\n        } else {\r\n            uint256 payout = tokenpot / winnerlist.length;\r\n            for (uint256 j = 0; j < winnerlist.length; j++) {\r\n                address payable winnerAddress = winnerlist[j];\r\n                //uint payout=(tokenpot/winnertottokens)*playerinfo[winnerAddress].bettokens;\r\n                tokenpot = tokenpot.sub(payout);\r\n                playerinfo[winnerAddress].totaltokens = playerinfo[\r\n                    winnerAddress\r\n                ]\r\n                    .totaltokens\r\n                    .add(payout);\r\n            }\r\n            //   if (tokenpot!=0){\r\n            //       playerinfo[owner].totaltokens=playerinfo[owner].totaltokens.add(tokenpot);\r\n            //       tokenpot=0;\r\n            //   }\r\n\r\n            for (uint256 i = 0; i < globallist.length; i++) {\r\n                address payable playerAddress = globallist[i];\r\n                if (playerinfo[playerAddress].totaltokens > 0) {\r\n                    playerAddress.transfer(\r\n                        playerinfo[playerAddress].totaltokens * 1 ether\r\n                    );\r\n                }\r\n            }\r\n        }\r\n        state = GameState.ENDED;\r\n        selfdestruct(payable(owner()));\r\n    }\r\n}\r\n",
  "sourcePath": "C:/Users/bubuw/LotteryProject/src/contracts/Code.sol",
  "compiler": {
    "name": "solc",
    "version": "0.7.0+commit.9e61f92b.Emscripten.clang"
  },
  "schemaVersion": "3.3.3",
  "updatedAt": "2021-01-10T17:12:04.447Z",
  "devdoc": {
    "kind": "dev",
    "methods": {
      "owner()": {
        "details": "Returns the address of the current owner."
      },
      "renounceOwnership()": {
        "details": "Leaves the contract without owner. It will not be possible to call `onlyOwner` functions anymore. Can only be called by the current owner. NOTE: Renouncing ownership will leave the contract without an owner, thereby removing any functionality that is only available to the owner."
      },
      "transferOwnership(address)": {
        "details": "Transfers ownership of the contract to a new account (`newOwner`). Can only be called by the current owner."
      }
    },
    "version": 1
  },
  "userdoc": {
    "kind": "user",
    "methods": {},
    "version": 1
  }
}